{
  "contractName": "Auth",
  "abi": [
    {
      "constant": false,
      "inputs": [
        {
          "name": "_address",
          "type": "address"
        },
        {
          "name": "_name",
          "type": "string"
        },
        {
          "name": "_certificateNumber",
          "type": "string"
        }
      ],
      "name": "register",
      "outputs": [],
      "payable": false,
      "stateMutability": "nonpayable",
      "type": "function"
    }
  ],
  "bytecode": "0x608060405234801561001057600080fd5b506103b3806100206000396000f300608060405260043610610041576000357c0100000000000000000000000000000000000000000000000000000000900463ffffffff1680638d59cc0214610046575b600080fd5b34801561005257600080fd5b50610113600480360381019080803573ffffffffffffffffffffffffffffffffffffffff169060200190929190803590602001908201803590602001908080601f0160208091040260200160405190810160405280939291908181526020018383808284378201915050505050509192919290803590602001908201803590602001908080601f0160208091040260200160405190810160405280939291908181526020018383808284378201915050505050509192919290505050610115565b005b3373ffffffffffffffffffffffffffffffffffffffff166000808573ffffffffffffffffffffffffffffffffffffffff1673ffffffffffffffffffffffffffffffffffffffff16815260200190815260200160002060000160009054906101000a900473ffffffffffffffffffffffffffffffffffffffff1673ffffffffffffffffffffffffffffffffffffffff16141515156101b157600080fd5b826000808573ffffffffffffffffffffffffffffffffffffffff1673ffffffffffffffffffffffffffffffffffffffff16815260200190815260200160002060000160006101000a81548173ffffffffffffffffffffffffffffffffffffffff021916908373ffffffffffffffffffffffffffffffffffffffff160217905550816000808573ffffffffffffffffffffffffffffffffffffffff1673ffffffffffffffffffffffffffffffffffffffff16815260200190815260200160002060010190805190602001906102869291906102e2565b50806000808573ffffffffffffffffffffffffffffffffffffffff1673ffffffffffffffffffffffffffffffffffffffff16815260200190815260200160002060020190805190602001906102dc9291906102e2565b50505050565b828054600181600116156101000203166002900490600052602060002090601f016020900481019282601f1061032357805160ff1916838001178555610351565b82800160010185558215610351579182015b82811115610350578251825591602001919060010190610335565b5b50905061035e9190610362565b5090565b61038491905b80821115610380576000816000905550600101610368565b5090565b905600a165627a7a723058202a8c523889a759f05cedf4951d2ee72c37dbc15a93b4f4408efeffedf44b0fc20029",
  "source": "pragma solidity ^ 0.4.25;\r\n\r\ncontract Auth {\r\n    struct UserDetail {\r\n        address addr;\r\n        string name;\r\n        string certificateNumber;\r\n    }\r\n\r\n    mapping(address => UserDetail) user;\r\n\r\n    // user registration function\r\n    function register(\r\n        address _address,\r\n        string memory _name,\r\n        string memory _certificateNumber\r\n    ) public {\r\n        require(user[_address].addr != msg.sender);\r\n        user[_address].addr = _address;\r\n        user[_address].name = _name;\r\n        user[_address].certificateNumber = _certificateNumber;\r\n    }\r\n}",
  "sourcePath": "C:\\Users\\HP\\Desktop\\BLOCKCHAIN_FYP\\contracts\\Auth.sol",
  "compiler": {
    "name": "solc",
    "version": "0.4.25+commit.59dbf8f1.Emscripten.clang"
  },
  "schemaVersion": "3.4.7",
  "updatedAt": "2022-06-16T10:06:19.405Z",
  "networkType": "ethereum",
  "devdoc": {
    "methods": {}
  },
  "userdoc": {
    "methods": {}
  }
}