{
  "contractName": "Auth",
  "abi": [
    {
      "constant": false,
      "inputs": [
        {
          "name": "_address",
          "type": "address"
        },
        {
          "name": "_name",
          "type": "string"
        },
        {
          "name": "_password",
          "type": "string"
        },
        {
          "name": "_identityProof",
          "type": "string"
        }
      ],
      "name": "register",
      "outputs": [
        {
          "name": "",
          "type": "bool"
        }
      ],
      "payable": false,
      "stateMutability": "nonpayable",
      "type": "function"
    },
    {
      "constant": false,
      "inputs": [
        {
          "name": "_address",
          "type": "address"
        },
        {
          "name": "_password",
          "type": "string"
        }
      ],
      "name": "login",
      "outputs": [
        {
          "name": "",
          "type": "bool"
        }
      ],
      "payable": false,
      "stateMutability": "nonpayable",
      "type": "function"
    },
    {
      "constant": true,
      "inputs": [
        {
          "name": "_address",
          "type": "address"
        }
      ],
      "name": "checkIsUserLogged",
      "outputs": [
        {
          "name": "",
          "type": "bool"
        }
      ],
      "payable": false,
      "stateMutability": "view",
      "type": "function"
    },
    {
      "constant": false,
      "inputs": [
        {
          "name": "_address",
          "type": "address"
        }
      ],
      "name": "logout",
      "outputs": [],
      "payable": false,
      "stateMutability": "nonpayable",
      "type": "function"
    }
  ],
  "bytecode": "0x608060405234801561001057600080fd5b5061098e806100206000396000f300608060405260043610610062576000357c0100000000000000000000000000000000000000000000000000000000900463ffffffff168063063d93d814610067578063297f7b39146101945780632f19d50b146101ef578063cc51f9b914610290575b600080fd5b34801561007357600080fd5b5061017a600480360381019080803573ffffffffffffffffffffffffffffffffffffffff169060200190929190803590602001908201803590602001908080601f0160208091040260200160405190810160405280939291908181526020018383808284378201915050505050509192919290803590602001908201803590602001908080601f0160208091040260200160405190810160405280939291908181526020018383808284378201915050505050509192919290803590602001908201803590602001908080601f01602080910402602001604051908101604052809392919081815260200183838082843782019150505050505091929192905050506102d3565b604051808215151515815260200191505060405180910390f35b3480156101a057600080fd5b506101d5600480360381019080803573ffffffffffffffffffffffffffffffffffffffff169060200190929190505050610559565b604051808215151515815260200191505060405180910390f35b3480156101fb57600080fd5b50610276600480360381019080803573ffffffffffffffffffffffffffffffffffffffff169060200190929190803590602001908201803590602001908080601f01602080910402602001604051908101604052809392919081815260200183838082843782019150505050505091929192905050506105b1565b604051808215151515815260200191505060405180910390f35b34801561029c57600080fd5b506102d1600480360381019080803573ffffffffffffffffffffffffffffffffffffffff169060200190929190505050610860565b005b60003373ffffffffffffffffffffffffffffffffffffffff166000808773ffffffffffffffffffffffffffffffffffffffff1673ffffffffffffffffffffffffffffffffffffffff16815260200190815260200160002060000160009054906101000a900473ffffffffffffffffffffffffffffffffffffffff1673ffffffffffffffffffffffffffffffffffffffff161415151561037157600080fd5b846000808773ffffffffffffffffffffffffffffffffffffffff1673ffffffffffffffffffffffffffffffffffffffff16815260200190815260200160002060000160006101000a81548173ffffffffffffffffffffffffffffffffffffffff021916908373ffffffffffffffffffffffffffffffffffffffff160217905550836000808773ffffffffffffffffffffffffffffffffffffffff1673ffffffffffffffffffffffffffffffffffffffff16815260200190815260200160002060010190805190602001906104469291906108bd565b50826000808773ffffffffffffffffffffffffffffffffffffffff1673ffffffffffffffffffffffffffffffffffffffff168152602001908152602001600020600201908051906020019061049c9291906108bd565b50816000808773ffffffffffffffffffffffffffffffffffffffff1673ffffffffffffffffffffffffffffffffffffffff16815260200190815260200160002060030190805190602001906104f29291906108bd565b5060008060008773ffffffffffffffffffffffffffffffffffffffff1673ffffffffffffffffffffffffffffffffffffffff16815260200190815260200160002060040160006101000a81548160ff02191690831515021790555060019050949350505050565b60008060008373ffffffffffffffffffffffffffffffffffffffff1673ffffffffffffffffffffffffffffffffffffffff16815260200190815260200160002060040160009054906101000a900460ff169050919050565b6000816040516020018082805190602001908083835b6020831015156105ec57805182526020820191506020810190506020830392506105c7565b6001836020036101000a0380198251168184511680821785525050505050509050019150506040516020818303038152906040526040518082805190602001908083835b6020831015156106555780518252602082019150602081019050602083039250610630565b6001836020036101000a0380198251168184511680821785525050505050509050019150506040518091039020600019166000808573ffffffffffffffffffffffffffffffffffffffff1673ffffffffffffffffffffffffffffffffffffffff16815260200190815260200160002060020160405160200180828054600181600116156101000203166002900480156107255780601f10610703576101008083540402835291820191610725565b820191906000526020600020905b815481529060010190602001808311610711575b50509150506040516020818303038152906040526040518082805190602001908083835b60208310151561076e5780518252602082019150602081019050602083039250610749565b6001836020036101000a03801982511681845116808217855250505050505090500191505060405180910390206000191614156108555760016000808573ffffffffffffffffffffffffffffffffffffffff1673ffffffffffffffffffffffffffffffffffffffff16815260200190815260200160002060040160006101000a81548160ff0219169083151502179055506000808473ffffffffffffffffffffffffffffffffffffffff1673ffffffffffffffffffffffffffffffffffffffff16815260200190815260200160002060040160009054906101000a900460ff16905061085a565b600090505b92915050565b60008060008373ffffffffffffffffffffffffffffffffffffffff1673ffffffffffffffffffffffffffffffffffffffff16815260200190815260200160002060040160006101000a81548160ff02191690831515021790555050565b828054600181600116156101000203166002900490600052602060002090601f016020900481019282601f106108fe57805160ff191683800117855561092c565b8280016001018555821561092c579182015b8281111561092b578251825591602001919060010190610910565b5b509050610939919061093d565b5090565b61095f91905b8082111561095b576000816000905550600101610943565b5090565b905600a165627a7a723058200f301e9a86bf2fae4e7ad634250d00650dfaf2faa16199fe98f44efe3930773c0029",
  "source": "pragma solidity ^ 0.4.25;\r\n\r\ncontract Auth {\r\n    struct UserDetail {\r\n        address addr;\r\n        string name;\r\n        string password;\r\n        string identityProof;\r\n        bool isUserLoggedIn;\r\n        bool isNGO;\r\n    }\r\n\r\n    mapping(address => UserDetail) user;\r\n\r\n    // user registration function\r\n    function register(\r\n        address _address,\r\n        string memory _name,\r\n        string memory _password,\r\n        string memory _identityProof\r\n    ) public returns (bool) {\r\n        require(user[_address].addr != msg.sender);\r\n        user[_address].addr = _address;\r\n        user[_address].name = _name;\r\n        user[_address].password = _password;\r\n        user[_address].identityProof = _identityProof;\r\n        user[_address].isUserLoggedIn = false;\r\n        return true;\r\n    }\r\n\r\n    // user login function\r\n    function login(address _address, string memory _password)\r\n        public\r\n        returns (bool)\r\n    {\r\n        if (\r\n            keccak256(abi.encodePacked(user[_address].password)) ==\r\n            keccak256(abi.encodePacked(_password))\r\n        ) {\r\n            user[_address].isUserLoggedIn = true;\r\n            return user[_address].isUserLoggedIn;\r\n        } else {\r\n            return false;\r\n        }\r\n    }\r\n\r\n    // check the user logged In or not\r\n    function checkIsUserLogged(address _address) public view returns (bool) {\r\n        return (user[_address].isUserLoggedIn);\r\n    }\r\n\r\n    // logout the user\r\n    function logout(address _address) public {\r\n        user[_address].isUserLoggedIn = false;\r\n    }\r\n}",
  "sourcePath": "C:\\Users\\HP\\Desktop\\BLOCKCHAIN_FYP\\contracts\\Auth.sol",
  "compiler": {
    "name": "solc",
    "version": "0.4.25+commit.59dbf8f1.Emscripten.clang"
  },
  "schemaVersion": "3.4.7",
  "updatedAt": "2022-06-13T08:04:03.870Z",
  "devdoc": {
    "methods": {}
  },
  "userdoc": {
    "methods": {}
  }
}