{
  "contractName": "NGO",
  "abi": [
    {
      "constant": true,
      "inputs": [
        {
          "name": "",
          "type": "uint256"
        }
      ],
      "name": "histroy",
      "outputs": [
        {
          "name": "org_name",
          "type": "string"
        },
        {
          "name": "cause_name",
          "type": "string"
        },
        {
          "name": "donor_address",
          "type": "address"
        },
        {
          "name": "amount",
          "type": "uint256"
        }
      ],
      "payable": false,
      "stateMutability": "view",
      "type": "function"
    },
    {
      "constant": true,
      "inputs": [
        {
          "name": "",
          "type": "uint256"
        }
      ],
      "name": "requests",
      "outputs": [
        {
          "name": "org_name",
          "type": "string"
        },
        {
          "name": "org_address",
          "type": "address"
        },
        {
          "name": "cause_name",
          "type": "string"
        },
        {
          "name": "description",
          "type": "string"
        },
        {
          "name": "amount",
          "type": "uint256"
        },
        {
          "name": "amount_collected",
          "type": "uint256"
        },
        {
          "name": "numberOfVoters",
          "type": "uint256"
        },
        {
          "name": "timestamp",
          "type": "uint256"
        },
        {
          "name": "status",
          "type": "string"
        }
      ],
      "payable": false,
      "stateMutability": "view",
      "type": "function"
    },
    {
      "constant": true,
      "inputs": [],
      "name": "totalContributors",
      "outputs": [
        {
          "name": "",
          "type": "uint256"
        }
      ],
      "payable": false,
      "stateMutability": "view",
      "type": "function"
    },
    {
      "constant": false,
      "inputs": [
        {
          "name": "_org_name",
          "type": "string"
        },
        {
          "name": "_org_address",
          "type": "address"
        },
        {
          "name": "_cause_name",
          "type": "string"
        },
        {
          "name": "_description",
          "type": "string"
        },
        {
          "name": "_amount",
          "type": "uint256"
        }
      ],
      "name": "createNewRequest",
      "outputs": [],
      "payable": false,
      "stateMutability": "nonpayable",
      "type": "function"
    },
    {
      "constant": false,
      "inputs": [
        {
          "name": "index",
          "type": "uint256"
        }
      ],
      "name": "voteForRequest",
      "outputs": [],
      "payable": false,
      "stateMutability": "nonpayable",
      "type": "function"
    },
    {
      "constant": false,
      "inputs": [
        {
          "name": "_org_name",
          "type": "string"
        },
        {
          "name": "_cause_name",
          "type": "string"
        }
      ],
      "name": "donate",
      "outputs": [],
      "payable": true,
      "stateMutability": "payable",
      "type": "function"
    },
    {
      "constant": true,
      "inputs": [],
      "name": "getAllTransactions",
      "outputs": [
        {
          "components": [
            {
              "name": "org_name",
              "type": "string"
            },
            {
              "name": "cause_name",
              "type": "string"
            },
            {
              "name": "donor_address",
              "type": "address"
            },
            {
              "name": "amount",
              "type": "uint256"
            }
          ],
          "name": "",
          "type": "tuple[]"
        }
      ],
      "payable": false,
      "stateMutability": "view",
      "type": "function"
    }
  ],
  "bytecode": "0x608060405234801561001057600080fd5b50611948806100206000396000f300608060405260043610610083576000357c0100000000000000000000000000000000000000000000000000000000900463ffffffff1680631653441c1461008857806327506f53146100a4578063700127ef146100cf57806379290b37146100f857806381d12c5814610138578063d6dbfb001461017d578063f251fc8c146101a6575b600080fd5b6100a2600480360361009d9190810190611347565b6101d1565b005b3480156100b057600080fd5b506100b961054d565b6040516100c69190611645565b60405180910390f35b3480156100db57600080fd5b506100f660048036036100f191908101906113b3565b610751565b005b34801561010457600080fd5b5061011f600480360361011a91908101906113b3565b61087b565b60405161012f9493929190611710565b60405180910390f35b34801561014457600080fd5b5061015f600480360361015a91908101906113b3565b610a0a565b60405161017499989796959493929190611667565b60405180910390f35b34801561018957600080fd5b506101a4600480360361019f9190810190611288565b610ce7565b005b3480156101b257600080fd5b506101bb610f0c565b6040516101c891906117c3565b60405180910390f35b60006101db6110c3565b600091505b600280549050821015610547576102af6002838154811015156101ff57fe5b90600052602060002090600a02016000018054600181600116156101000203166002900480601f0160208091040260200160405190810160405280929190818152602001828054600181600116156101000203166002900480156102a45780601f10610279576101008083540402835291602001916102a4565b820191906000526020600020905b81548152906001019060200180831161028757829003601f168201915b505050505085610f12565b801561037957506103786002838154811015156102c857fe5b90600052602060002090600a02016002018054600181600116156101000203166002900480601f01602080910402602001604051908101604052809291908181526020018280546001816001161561010002031660029004801561036d5780601f106103425761010080835404028352916020019161036d565b820191906000526020600020905b81548152906001019060200180831161035057829003601f168201915b505050505084610f12565b5b1561053a5760028281548110151561038d57fe5b90600052602060002090600a0201600501546002838154811015156103ae57fe5b90600052602060002090600a020160040154111515610402576040517f08c379a00000000000000000000000000000000000000000000000000000000081526004016103f990611763565b60405180910390fd5b670de0b6b3a76400003481151561041557fe5b0460028381548110151561042557fe5b90600052602060002090600a0201600501600082825401925050819055506080604051908101604052808581526020018481526020013373ffffffffffffffffffffffffffffffffffffffff1681526020013481525090506003819080600181540180825580915050906001820390600052602060002090600402016000909192909190915060008201518160000190805190602001906104c7929190611102565b5060208201518160010190805190602001906104e4929190611102565b5060408201518160020160006101000a81548173ffffffffffffffffffffffffffffffffffffffff021916908373ffffffffffffffffffffffffffffffffffffffff160217905550606082015181600301555050505b81806001019250506101e0565b50505050565b60606003805480602002602001604051908101604052809291908181526020016000905b82821015610748578382906000526020600020906004020160806040519081016040529081600082018054600181600116156101000203166002900480601f01602080910402602001604051908101604052809291908181526020018280546001816001161561010002031660029004801561062e5780601f106106035761010080835404028352916020019161062e565b820191906000526020600020905b81548152906001019060200180831161061157829003601f168201915b50505050508152602001600182018054600181600116156101000203166002900480601f0160208091040260200160405190810160405280929190818152602001828054600181600116156101000203166002900480156106d05780601f106106a5576101008083540402835291602001916106d0565b820191906000526020600020905b8154815290600101906020018083116106b357829003601f168201915b505050505081526020016002820160009054906101000a900473ffffffffffffffffffffffffffffffffffffffff1673ffffffffffffffffffffffffffffffffffffffff1673ffffffffffffffffffffffffffffffffffffffff16815260200160038201548152505081526020019060010190610571565b50505050905090565b600060028281548110151561076257fe5b90600052602060002090600a02019050600015158160090160003373ffffffffffffffffffffffffffffffffffffffff1673ffffffffffffffffffffffffffffffffffffffff16815260200190815260200160002060009054906101000a900460ff161515141515610809576040517f08c379a0000000000000000000000000000000000000000000000000000000008152600401610800906117a3565b60405180910390fd5b60018160090160003373ffffffffffffffffffffffffffffffffffffffff1673ffffffffffffffffffffffffffffffffffffffff16815260200190815260200160002060006101000a81548160ff02191690831515021790555080600601600081548092919060010191905055505050565b60038181548110151561088a57fe5b9060005260206000209060040201600091509050806000018054600181600116156101000203166002900480601f0160208091040260200160405190810160405280929190818152602001828054600181600116156101000203166002900480156109365780601f1061090b57610100808354040283529160200191610936565b820191906000526020600020905b81548152906001019060200180831161091957829003601f168201915b505050505090806001018054600181600116156101000203166002900480601f0160208091040260200160405190810160405280929190818152602001828054600181600116156101000203166002900480156109d45780601f106109a9576101008083540402835291602001916109d4565b820191906000526020600020905b8154815290600101906020018083116109b757829003601f168201915b5050505050908060020160009054906101000a900473ffffffffffffffffffffffffffffffffffffffff16908060030154905084565b600281815481101515610a1957fe5b90600052602060002090600a0201600091509050806000018054600181600116156101000203166002900480601f016020809104026020016040519081016040528092919081815260200182805460018160011615610100020316600290048015610ac55780601f10610a9a57610100808354040283529160200191610ac5565b820191906000526020600020905b815481529060010190602001808311610aa857829003601f168201915b5050505050908060010160009054906101000a900473ffffffffffffffffffffffffffffffffffffffff1690806002018054600181600116156101000203166002900480601f016020809104026020016040519081016040528092919081815260200182805460018160011615610100020316600290048015610b895780601f10610b5e57610100808354040283529160200191610b89565b820191906000526020600020905b815481529060010190602001808311610b6c57829003601f168201915b505050505090806003018054600181600116156101000203166002900480601f016020809104026020016040519081016040528092919081815260200182805460018160011615610100020316600290048015610c275780601f10610bfc57610100808354040283529160200191610c27565b820191906000526020600020905b815481529060010190602001808311610c0a57829003601f168201915b505050505090806004015490806005015490806006015490806007015490806008018054600181600116156101000203166002900480601f016020809104026020016040519081016040528092919081815260200182805460018160011615610100020316600290048015610cdd5780601f10610cb257610100808354040283529160200191610cdd565b820191906000526020600020905b815481529060010190602001808311610cc057829003601f168201915b5050505050905089565b610cef611182565b3373ffffffffffffffffffffffffffffffffffffffff168573ffffffffffffffffffffffffffffffffffffffff16141515610d5f576040517f08c379a0000000000000000000000000000000000000000000000000000000008152600401610d5690611783565b60405180910390fd5b610120604051908101604052808781526020018673ffffffffffffffffffffffffffffffffffffffff16815260200185815260200184815260200183815260200160008152602001600081526020014281526020016040805190810160405280601981526020017f70656e64696e672f617070726f7665642f72656a65637465640000000000000081525081525090506002819080600181540180825580915050906001820390600052602060002090600a0201600090919290919091506000820151816000019080519060200190610e39929190611102565b5060208201518160010160006101000a81548173ffffffffffffffffffffffffffffffffffffffff021916908373ffffffffffffffffffffffffffffffffffffffff1602179055506040820151816002019080519060200190610e9d929190611102565b506060820151816003019080519060200190610eba929190611102565b506080820151816004015560a0820151816005015560c0820151816006015560e08201518160070155610100820151816008019080519060200190610f00929190611102565b50505050505050505050565b60005481565b6000816040516020018082805190602001908083835b602083101515610f4d5780518252602082019150602081019050602083039250610f28565b6001836020036101000a0380198251168184511680821785525050505050509050019150506040516020818303038152906040526040518082805190602001908083835b602083101515610fb65780518252602082019150602081019050602083039250610f91565b6001836020036101000a038019825116818451168082178552505050505050905001915050604051809103902060001916836040516020018082805190602001908083835b6020831015156110205780518252602082019150602081019050602083039250610ffb565b6001836020036101000a0380198251168184511680821785525050505050509050019150506040516020818303038152906040526040518082805190602001908083835b6020831015156110895780518252602082019150602081019050602083039250611064565b6001836020036101000a03801982511681845116808217855250505050505090500191505060405180910390206000191614905092915050565b6080604051908101604052806060815260200160608152602001600073ffffffffffffffffffffffffffffffffffffffff168152602001600081525090565b828054600181600116156101000203166002900490600052602060002090601f016020900481019282601f1061114357805160ff1916838001178555611171565b82800160010185558215611171579182015b82811115611170578251825591602001919060010190611155565b5b50905061117e91906111e5565b5090565b6101206040519081016040528060608152602001600073ffffffffffffffffffffffffffffffffffffffff168152602001606081526020016060815260200160008152602001600081526020016000815260200160008152602001606081525090565b61120791905b808211156112035760008160009055506001016111eb565b5090565b90565b60006112168235611891565b905092915050565b600082601f830112151561123157600080fd5b813561124461123f8261180b565b6117de565b9150808252602083016020830185838301111561126057600080fd5b61126b8382846118bb565b50505092915050565b600061128082356118b1565b905092915050565b600080600080600060a086880312156112a057600080fd5b600086013567ffffffffffffffff8111156112ba57600080fd5b6112c68882890161121e565b95505060206112d78882890161120a565b945050604086013567ffffffffffffffff8111156112f457600080fd5b6113008882890161121e565b935050606086013567ffffffffffffffff81111561131d57600080fd5b6113298882890161121e565b925050608061133a88828901611274565b9150509295509295909350565b6000806040838503121561135a57600080fd5b600083013567ffffffffffffffff81111561137457600080fd5b6113808582860161121e565b925050602083013567ffffffffffffffff81111561139d57600080fd5b6113a98582860161121e565b9150509250929050565b6000602082840312156113c557600080fd5b60006113d384828501611274565b91505092915050565b6113e581611867565b82525050565b60006113f682611844565b8084526020840193508360208202850161140f85611837565b60005b8481101561144857838303885261142a8383516115cc565b92506114358261185a565b9150602088019750600181019050611412565b508196508694505050505092915050565b60006114648261184f565b8084526114788160208601602086016118ca565b611481816118fd565b602085010191505092915050565b6000602882527f52657175697265642046756e6420686173206265656e20636f6c6c656374656460208301527f20616c72656164790000000000000000000000000000000000000000000000006040830152606082019050919050565b6000604982527f596f752063616e74206372656174652061206e6577207265717565737420617360208301527f20796f7520617265206e6f74207468652070617274206f6620746865206f726760408301527f616e697a6174696f6e00000000000000000000000000000000000000000000006060830152608082019050919050565b6000602182527f596f75206861766520616c726561647920646f6e65207769746820766f74696e60208301527f67000000000000000000000000000000000000000000000000000000000000006040830152606082019050919050565b600060808301600083015184820360008601526115e98282611459565b915050602083015184820360208601526116038282611459565b915050604083015161161860408601826113dc565b50606083015161162b6060860182611636565b508091505092915050565b61163f81611887565b82525050565b6000602082019050818103600083015261165f81846113eb565b905092915050565b6000610120820190508181036000830152611682818c611459565b9050611691602083018b6113dc565b81810360408301526116a3818a611459565b905081810360608301526116b78189611459565b90506116c66080830188611636565b6116d360a0830187611636565b6116e060c0830186611636565b6116ed60e0830185611636565b8181036101008301526117008184611459565b90509a9950505050505050505050565b6000608082019050818103600083015261172a8187611459565b9050818103602083015261173e8186611459565b905061174d60408301856113dc565b61175a6060830184611636565b95945050505050565b6000602082019050818103600083015261177c8161148f565b9050919050565b6000602082019050818103600083015261179c816114ec565b9050919050565b600060208201905081810360008301526117bc8161156f565b9050919050565b60006020820190506117d86000830184611636565b92915050565b6000604051905081810181811067ffffffffffffffff8211171561180157600080fd5b8060405250919050565b600067ffffffffffffffff82111561182257600080fd5b601f19601f8301169050602081019050919050565b6000602082019050919050565b600081519050919050565b600081519050919050565b6000602082019050919050565b600073ffffffffffffffffffffffffffffffffffffffff82169050919050565b6000819050919050565b600073ffffffffffffffffffffffffffffffffffffffff82169050919050565b6000819050919050565b82818337600083830152505050565b60005b838110156118e85780820151818401526020810190506118cd565b838111156118f7576000848401525b50505050565b6000601f19601f83011690509190505600a265627a7a72305820be429492b0b9e8b85631cc84207608e420e89b8a51c13bee909003cdfb30846f6c6578706572696d656e74616cf50037",
  "source": "pragma experimental ABIEncoderV2;\r\npragma solidity ^ 0.4.25;\r\n\r\ncontract NGO {\r\n    uint public totalContributors; \r\n    mapping(address=>bool) available_address;\r\n    struct Request {\r\n        string org_name;\r\n        address  org_address;\r\n        string cause_name;\r\n        string description;\r\n        uint amount;\r\n        uint amount_collected;\r\n        uint numberOfVoters;\r\n        uint256 timestamp;\r\n        string status;\r\n        mapping(address=>bool) voters;\r\n    }\r\n\r\n    Request [] public requests;\r\n\r\n    // struct NGO_Info {\r\n\r\n    // }\r\n\r\n    // struct Donor_Info {\r\n    //     string donor_name;\r\n    //     address donor_wallet_address;\r\n    //     string id;\r\n    // }\r\n\r\n    // Donor_Info [] donors;\r\n\r\n    struct Histroy {\r\n        string org_name;\r\n        string cause_name;\r\n        address donor_address;\r\n        uint amount;\r\n    }\r\n\r\n    Histroy [] public histroy;\r\n\r\n    function createNewRequest(string memory _org_name,address _org_address ,string memory _cause_name,string memory _description,uint _amount) public {\r\n        require(_org_address == msg.sender,\"You cant create a new request as you are not the part of the organization\");\r\n         Request memory newRequest = Request(\r\n            {\r\n                org_name:_org_name,\r\n                org_address:_org_address,\r\n                cause_name:_cause_name,\r\n                description:_description, //estimate to server 100 person each with 1 ether\r\n                amount:_amount,\r\n                amount_collected:0,\r\n                numberOfVoters:0,\r\n                timestamp:block.timestamp,\r\n                status:\"pending/approved/rejected\" \r\n            }\r\n            );\r\n         requests.push(newRequest);\r\n    }\r\n\r\n    function voteForRequest(uint index) public {\r\n        Request storage thisRequest = requests[index];\r\n        require(thisRequest.voters[msg.sender] == false,\"You have already done with voting\");\r\n        thisRequest.voters[msg.sender] = true;\r\n        thisRequest.numberOfVoters++;\r\n    }\r\n\r\n    function donate(string memory _org_name,string memory _cause_name) public payable{\r\n        for(uint i=0;i<requests.length;i++){\r\n            if(compareStrings(requests[i].org_name,_org_name) && compareStrings(requests[i].cause_name,_cause_name)){\r\n                require(requests[i].amount > requests[i].amount_collected,\"Required Fund has been collected already\");\r\n                requests[i].amount_collected += msg.value/1000000000000000000;\r\n            Histroy memory newHis = Histroy({\r\n                org_name: _org_name,\r\n                cause_name: _cause_name,\r\n                donor_address: msg.sender,\r\n                amount: msg.value\r\n            });\r\n\r\n            histroy.push(newHis);\r\n                \r\n            }\r\n            //  require(requests[i].numberOfVoters > totalContributors / 2,\"\");\r\n        }\r\n    }\r\n\r\n    function compareStrings(string memory a, string memory b) private view returns (bool) {\r\n        return (keccak256(abi.encodePacked((a))) == keccak256(abi.encodePacked((b))));\r\n    }\r\n\r\n    function getAllTransactions() public view returns (Histroy [] memory) {\r\n        return histroy;\r\n    }\r\n\r\n}",
  "sourcePath": "C:\\Users\\Intel\\Desktop\\final1\\FYP_NGO\\contracts\\NGO.sol",
  "compiler": {
    "name": "solc",
    "version": "0.4.25+commit.59dbf8f1.Emscripten.clang"
  },
  "schemaVersion": "3.4.7",
  "updatedAt": "2022-06-12T13:51:01.590Z",
  "networkType": "ethereum",
  "devdoc": {
    "methods": {}
  },
  "userdoc": {
    "methods": {}
  }
}