{
  "contractName": "NGO",
  "abi": [
    {
      "constant": true,
      "inputs": [
        {
          "name": "",
          "type": "uint256"
        }
      ],
      "name": "histroy",
      "outputs": [
        {
          "name": "org_name",
          "type": "string"
        },
        {
          "name": "cause_name",
          "type": "string"
        },
        {
          "name": "donor_address",
          "type": "address"
        },
        {
          "name": "amount",
          "type": "uint256"
        }
      ],
      "payable": false,
      "stateMutability": "view",
      "type": "function"
    },
    {
      "constant": true,
      "inputs": [
        {
          "name": "",
          "type": "uint256"
        }
      ],
      "name": "requests",
      "outputs": [
        {
          "name": "org_name",
          "type": "string"
        },
        {
          "name": "org_address",
          "type": "address"
        },
        {
          "name": "cause_name",
          "type": "string"
        },
        {
          "name": "description",
          "type": "string"
        },
        {
          "name": "amount",
          "type": "uint256"
        },
        {
          "name": "amount_collected",
          "type": "uint256"
        },
        {
          "name": "numberOfVoters",
          "type": "uint256"
        },
        {
          "name": "timestamp",
          "type": "uint256"
        },
        {
          "name": "status",
          "type": "string"
        }
      ],
      "payable": false,
      "stateMutability": "view",
      "type": "function"
    },
    {
      "constant": true,
      "inputs": [],
      "name": "totalContributors",
      "outputs": [
        {
          "name": "",
          "type": "uint256"
        }
      ],
      "payable": false,
      "stateMutability": "view",
      "type": "function"
    },
    {
      "constant": false,
      "inputs": [
        {
          "name": "_org_name",
          "type": "string"
        },
        {
          "name": "_org_address",
          "type": "address"
        },
        {
          "name": "_cause_name",
          "type": "string"
        },
        {
          "name": "_description",
          "type": "string"
        },
        {
          "name": "_amount",
          "type": "uint256"
        }
      ],
      "name": "createNewRequest",
      "outputs": [],
      "payable": false,
      "stateMutability": "nonpayable",
      "type": "function"
    },
    {
      "constant": false,
      "inputs": [
        {
          "name": "index",
          "type": "uint256"
        }
      ],
      "name": "voteForRequest",
      "outputs": [],
      "payable": false,
      "stateMutability": "nonpayable",
      "type": "function"
    },
    {
      "constant": false,
      "inputs": [
        {
          "name": "_org_name",
          "type": "string"
        },
        {
          "name": "_cause_name",
          "type": "string"
        }
      ],
      "name": "voteForRequests",
      "outputs": [],
      "payable": false,
      "stateMutability": "nonpayable",
      "type": "function"
    },
    {
      "constant": false,
      "inputs": [
        {
          "name": "_org_name",
          "type": "string"
        },
        {
          "name": "_cause_name",
          "type": "string"
        }
      ],
      "name": "donate",
      "outputs": [],
      "payable": true,
      "stateMutability": "payable",
      "type": "function"
    },
    {
      "constant": true,
      "inputs": [],
      "name": "getAllTransactions",
      "outputs": [
        {
          "components": [
            {
              "name": "org_name",
              "type": "string"
            },
            {
              "name": "cause_name",
              "type": "string"
            },
            {
              "name": "donor_address",
              "type": "address"
            },
            {
              "name": "amount",
              "type": "uint256"
            }
          ],
          "name": "",
          "type": "tuple[]"
        }
      ],
      "payable": false,
      "stateMutability": "view",
      "type": "function"
    }
  ],
  "bytecode": "0x608060405234801561001057600080fd5b50611ce5806100206000396000f30060806040526004361061008e576000357c0100000000000000000000000000000000000000000000000000000000900463ffffffff1680631653441c1461009357806327506f53146100af578063700127ef146100da57806379290b371461010357806381d12c5814610143578063d6dbfb0014610188578063e9d59be0146101b1578063f251fc8c146101da575b600080fd5b6100ad60048036036100a891908101906116e4565b610205565b005b3480156100bb57600080fd5b506100c4610608565b6040516100d191906119e2565b60405180910390f35b3480156100e657600080fd5b5061010160048036036100fc9190810190611750565b61080c565b005b34801561010f57600080fd5b5061012a60048036036101259190810190611750565b610936565b60405161013a9493929190611aad565b60405180910390f35b34801561014f57600080fd5b5061016a60048036036101659190810190611750565b610ac5565b60405161017f99989796959493929190611a04565b60405180910390f35b34801561019457600080fd5b506101af60048036036101aa9190810190611625565b610da2565b005b3480156101bd57600080fd5b506101d860048036036101d391908101906116e4565b610fc7565b005b3480156101e657600080fd5b506101ef6112a9565b6040516101fc9190611b60565b60405180910390f35b600061020f611460565b600091505b600280549050821015610602576102e360028381548110151561023357fe5b90600052602060002090600a02016000018054600181600116156101000203166002900480601f0160208091040260200160405190810160405280929190818152602001828054600181600116156101000203166002900480156102d85780601f106102ad576101008083540402835291602001916102d8565b820191906000526020600020905b8154815290600101906020018083116102bb57829003601f168201915b5050505050856112af565b80156103ad57506103ac6002838154811015156102fc57fe5b90600052602060002090600a02016002018054600181600116156101000203166002900480601f0160208091040260200160405190810160405280929190818152602001828054600181600116156101000203166002900480156103a15780601f10610376576101008083540402835291602001916103a1565b820191906000526020600020905b81548152906001019060200180831161038457829003601f168201915b5050505050846112af565b5b156105f5576002828154811015156103c157fe5b90600052602060002090600a0201600501546002838154811015156103e257fe5b90600052602060002090600a020160040154111515610436576040517f08c379a000000000000000000000000000000000000000000000000000000000815260040161042d90611b00565b60405180910390fd5b670de0b6b3a76400003481151561044957fe5b0460028381548110151561045957fe5b90600052602060002090600a0201600501600082825401925050819055506080604051908101604052808581526020018481526020013373ffffffffffffffffffffffffffffffffffffffff1681526020013481525090506003819080600181540180825580915050906001820390600052602060002090600402016000909192909190915060008201518160000190805190602001906104fb92919061149f565b50602082015181600101908051906020019061051892919061149f565b5060408201518160020160006101000a81548173ffffffffffffffffffffffffffffffffffffffff021916908373ffffffffffffffffffffffffffffffffffffffff1602179055506060820151816003015550505060028281548110151561057c57fe5b90600052602060002090600a020160010160009054906101000a900473ffffffffffffffffffffffffffffffffffffffff1673ffffffffffffffffffffffffffffffffffffffff166108fc349081150290604051600060405180830381858888f193505050501580156105f3573d6000803e3d6000fd5b505b8180600101925050610214565b50505050565b60606003805480602002602001604051908101604052809291908181526020016000905b82821015610803578382906000526020600020906004020160806040519081016040529081600082018054600181600116156101000203166002900480601f0160208091040260200160405190810160405280929190818152602001828054600181600116156101000203166002900480156106e95780601f106106be576101008083540402835291602001916106e9565b820191906000526020600020905b8154815290600101906020018083116106cc57829003601f168201915b50505050508152602001600182018054600181600116156101000203166002900480601f01602080910402602001604051908101604052809291908181526020018280546001816001161561010002031660029004801561078b5780601f106107605761010080835404028352916020019161078b565b820191906000526020600020905b81548152906001019060200180831161076e57829003601f168201915b505050505081526020016002820160009054906101000a900473ffffffffffffffffffffffffffffffffffffffff1673ffffffffffffffffffffffffffffffffffffffff1673ffffffffffffffffffffffffffffffffffffffff1681526020016003820154815250508152602001906001019061062c565b50505050905090565b600060028281548110151561081d57fe5b90600052602060002090600a02019050600015158160090160003373ffffffffffffffffffffffffffffffffffffffff1673ffffffffffffffffffffffffffffffffffffffff16815260200190815260200160002060009054906101000a900460ff1615151415156108c4576040517f08c379a00000000000000000000000000000000000000000000000000000000081526004016108bb90611b40565b60405180910390fd5b60018160090160003373ffffffffffffffffffffffffffffffffffffffff1673ffffffffffffffffffffffffffffffffffffffff16815260200190815260200160002060006101000a81548160ff02191690831515021790555080600601600081548092919060010191905055505050565b60038181548110151561094557fe5b9060005260206000209060040201600091509050806000018054600181600116156101000203166002900480601f0160208091040260200160405190810160405280929190818152602001828054600181600116156101000203166002900480156109f15780601f106109c6576101008083540402835291602001916109f1565b820191906000526020600020905b8154815290600101906020018083116109d457829003601f168201915b505050505090806001018054600181600116156101000203166002900480601f016020809104026020016040519081016040528092919081815260200182805460018160011615610100020316600290048015610a8f5780601f10610a6457610100808354040283529160200191610a8f565b820191906000526020600020905b815481529060010190602001808311610a7257829003601f168201915b5050505050908060020160009054906101000a900473ffffffffffffffffffffffffffffffffffffffff16908060030154905084565b600281815481101515610ad457fe5b90600052602060002090600a0201600091509050806000018054600181600116156101000203166002900480601f016020809104026020016040519081016040528092919081815260200182805460018160011615610100020316600290048015610b805780601f10610b5557610100808354040283529160200191610b80565b820191906000526020600020905b815481529060010190602001808311610b6357829003601f168201915b5050505050908060010160009054906101000a900473ffffffffffffffffffffffffffffffffffffffff1690806002018054600181600116156101000203166002900480601f016020809104026020016040519081016040528092919081815260200182805460018160011615610100020316600290048015610c445780601f10610c1957610100808354040283529160200191610c44565b820191906000526020600020905b815481529060010190602001808311610c2757829003601f168201915b505050505090806003018054600181600116156101000203166002900480601f016020809104026020016040519081016040528092919081815260200182805460018160011615610100020316600290048015610ce25780601f10610cb757610100808354040283529160200191610ce2565b820191906000526020600020905b815481529060010190602001808311610cc557829003601f168201915b505050505090806004015490806005015490806006015490806007015490806008018054600181600116156101000203166002900480601f016020809104026020016040519081016040528092919081815260200182805460018160011615610100020316600290048015610d985780601f10610d6d57610100808354040283529160200191610d98565b820191906000526020600020905b815481529060010190602001808311610d7b57829003601f168201915b5050505050905089565b610daa61151f565b3373ffffffffffffffffffffffffffffffffffffffff168573ffffffffffffffffffffffffffffffffffffffff16141515610e1a576040517f08c379a0000000000000000000000000000000000000000000000000000000008152600401610e1190611b20565b60405180910390fd5b610120604051908101604052808781526020018673ffffffffffffffffffffffffffffffffffffffff16815260200185815260200184815260200183815260200160008152602001600081526020014281526020016040805190810160405280601981526020017f70656e64696e672f617070726f7665642f72656a65637465640000000000000081525081525090506002819080600181540180825580915050906001820390600052602060002090600a0201600090919290919091506000820151816000019080519060200190610ef492919061149f565b5060208201518160010160006101000a81548173ffffffffffffffffffffffffffffffffffffffff021916908373ffffffffffffffffffffffffffffffffffffffff1602179055506040820151816002019080519060200190610f5892919061149f565b506060820151816003019080519060200190610f7592919061149f565b506080820151816004015560a0820151816005015560c0820151816006015560e08201518160070155610100820151816008019080519060200190610fbb92919061149f565b50505050505050505050565b600080600090505b60028054905081101561119e5761109e600282815481101515610fee57fe5b90600052602060002090600a02016000018054600181600116156101000203166002900480601f0160208091040260200160405190810160405280929190818152602001828054600181600116156101000203166002900480156110935780601f1061106857610100808354040283529160200191611093565b820191906000526020600020905b81548152906001019060200180831161107657829003601f168201915b5050505050856112af565b801561116857506111676002828154811015156110b757fe5b90600052602060002090600a02016002018054600181600116156101000203166002900480601f01602080910402602001604051908101604052809291908181526020018280546001816001161561010002031660029004801561115c5780601f106111315761010080835404028352916020019161115c565b820191906000526020600020905b81548152906001019060200180831161113f57829003601f168201915b5050505050846112af565b5b156111915760028181548110151561117c57fe5b90600052602060002090600a0201915061119e565b8080600101915050610fcf565b600015158260090160003373ffffffffffffffffffffffffffffffffffffffff1673ffffffffffffffffffffffffffffffffffffffff16815260200190815260200160002060009054906101000a900460ff161515141515611235576040517f08c379a000000000000000000000000000000000000000000000000000000000815260040161122c90611b40565b60405180910390fd5b60018260090160003373ffffffffffffffffffffffffffffffffffffffff1673ffffffffffffffffffffffffffffffffffffffff16815260200190815260200160002060006101000a81548160ff021916908315150217905550816006016000815480929190600101919050555050505050565b60005481565b6000816040516020018082805190602001908083835b6020831015156112ea57805182526020820191506020810190506020830392506112c5565b6001836020036101000a0380198251168184511680821785525050505050509050019150506040516020818303038152906040526040518082805190602001908083835b602083101515611353578051825260208201915060208101905060208303925061132e565b6001836020036101000a038019825116818451168082178552505050505050905001915050604051809103902060001916836040516020018082805190602001908083835b6020831015156113bd5780518252602082019150602081019050602083039250611398565b6001836020036101000a0380198251168184511680821785525050505050509050019150506040516020818303038152906040526040518082805190602001908083835b6020831015156114265780518252602082019150602081019050602083039250611401565b6001836020036101000a03801982511681845116808217855250505050505090500191505060405180910390206000191614905092915050565b6080604051908101604052806060815260200160608152602001600073ffffffffffffffffffffffffffffffffffffffff168152602001600081525090565b828054600181600116156101000203166002900490600052602060002090601f016020900481019282601f106114e057805160ff191683800117855561150e565b8280016001018555821561150e579182015b8281111561150d5782518255916020019190600101906114f2565b5b50905061151b9190611582565b5090565b6101206040519081016040528060608152602001600073ffffffffffffffffffffffffffffffffffffffff168152602001606081526020016060815260200160008152602001600081526020016000815260200160008152602001606081525090565b6115a491905b808211156115a0576000816000905550600101611588565b5090565b90565b60006115b38235611c2e565b905092915050565b600082601f83011215156115ce57600080fd5b81356115e16115dc82611ba8565b611b7b565b915080825260208301602083018583830111156115fd57600080fd5b611608838284611c58565b50505092915050565b600061161d8235611c4e565b905092915050565b600080600080600060a0868803121561163d57600080fd5b600086013567ffffffffffffffff81111561165757600080fd5b611663888289016115bb565b9550506020611674888289016115a7565b945050604086013567ffffffffffffffff81111561169157600080fd5b61169d888289016115bb565b935050606086013567ffffffffffffffff8111156116ba57600080fd5b6116c6888289016115bb565b92505060806116d788828901611611565b9150509295509295909350565b600080604083850312156116f757600080fd5b600083013567ffffffffffffffff81111561171157600080fd5b61171d858286016115bb565b925050602083013567ffffffffffffffff81111561173a57600080fd5b611746858286016115bb565b9150509250929050565b60006020828403121561176257600080fd5b600061177084828501611611565b91505092915050565b61178281611c04565b82525050565b600061179382611be1565b808452602084019350836020820285016117ac85611bd4565b60005b848110156117e55783830388526117c7838351611969565b92506117d282611bf7565b91506020880197506001810190506117af565b508196508694505050505092915050565b600061180182611bec565b808452611815816020860160208601611c67565b61181e81611c9a565b602085010191505092915050565b6000602882527f52657175697265642046756e6420686173206265656e20636f6c6c656374656460208301527f20616c72656164790000000000000000000000000000000000000000000000006040830152606082019050919050565b6000604982527f596f752063616e74206372656174652061206e6577207265717565737420617360208301527f20796f7520617265206e6f74207468652070617274206f6620746865206f726760408301527f616e697a6174696f6e00000000000000000000000000000000000000000000006060830152608082019050919050565b6000602182527f596f75206861766520616c726561647920646f6e65207769746820766f74696e60208301527f67000000000000000000000000000000000000000000000000000000000000006040830152606082019050919050565b6000608083016000830151848203600086015261198682826117f6565b915050602083015184820360208601526119a082826117f6565b91505060408301516119b56040860182611779565b5060608301516119c860608601826119d3565b508091505092915050565b6119dc81611c24565b82525050565b600060208201905081810360008301526119fc8184611788565b905092915050565b6000610120820190508181036000830152611a1f818c6117f6565b9050611a2e602083018b611779565b8181036040830152611a40818a6117f6565b90508181036060830152611a5481896117f6565b9050611a6360808301886119d3565b611a7060a08301876119d3565b611a7d60c08301866119d3565b611a8a60e08301856119d3565b818103610100830152611a9d81846117f6565b90509a9950505050505050505050565b60006080820190508181036000830152611ac781876117f6565b90508181036020830152611adb81866117f6565b9050611aea6040830185611779565b611af760608301846119d3565b95945050505050565b60006020820190508181036000830152611b198161182c565b9050919050565b60006020820190508181036000830152611b3981611889565b9050919050565b60006020820190508181036000830152611b598161190c565b9050919050565b6000602082019050611b7560008301846119d3565b92915050565b6000604051905081810181811067ffffffffffffffff82111715611b9e57600080fd5b8060405250919050565b600067ffffffffffffffff821115611bbf57600080fd5b601f19601f8301169050602081019050919050565b6000602082019050919050565b600081519050919050565b600081519050919050565b6000602082019050919050565b600073ffffffffffffffffffffffffffffffffffffffff82169050919050565b6000819050919050565b600073ffffffffffffffffffffffffffffffffffffffff82169050919050565b6000819050919050565b82818337600083830152505050565b60005b83811015611c85578082015181840152602081019050611c6a565b83811115611c94576000848401525b50505050565b6000601f19601f83011690509190505600a265627a7a7230582097d91335a4726b68af82700138f133c2bd8af3300a7873ef49917a195dab9e1c6c6578706572696d656e74616cf50037",
  "source": "pragma experimental ABIEncoderV2;\r\npragma solidity ^ 0.4.25;\r\n\r\ncontract NGO {\r\n    uint public totalContributors; \r\n    mapping(address=>bool) available_address;\r\n    struct Request {\r\n        string org_name;\r\n        address  org_address;\r\n        string cause_name;\r\n        string description;\r\n        uint amount;\r\n        uint amount_collected;\r\n        uint numberOfVoters;\r\n        uint256 timestamp;\r\n        string status;\r\n        mapping(address=>bool) voters;\r\n    }\r\n\r\n    Request [] public requests;\r\n\r\n    // struct NGO_Info {\r\n\r\n    // }\r\n\r\n    // struct Donor_Info {\r\n    //     string donor_name;\r\n    //     address donor_wallet_address;\r\n    //     string id;\r\n    // }\r\n\r\n    // Donor_Info [] donors;\r\n\r\n    struct Histroy {\r\n        string org_name;\r\n        string cause_name;\r\n        address donor_address;\r\n        uint amount;\r\n    }\r\n\r\n    Histroy [] public histroy;\r\n\r\n    function createNewRequest(string memory _org_name,address _org_address ,string memory _cause_name,string memory _description,uint _amount) public {\r\n        require(_org_address == msg.sender,\"You cant create a new request as you are not the part of the organization\");\r\n         Request memory newRequest = Request(\r\n            {\r\n                org_name:_org_name,\r\n                org_address:_org_address,\r\n                cause_name:_cause_name,\r\n                description:_description, //estimate to server 100 person each with 1 ether\r\n                amount:_amount,\r\n                amount_collected:0,\r\n                numberOfVoters:0,\r\n                timestamp:block.timestamp,\r\n                status:\"pending/approved/rejected\" \r\n            }\r\n            );\r\n         requests.push(newRequest);\r\n    }\r\n\r\n    function voteForRequest(uint index) public {\r\n        Request storage thisRequest = requests[index];\r\n        require(thisRequest.voters[msg.sender] == false,\"You have already done with voting\");\r\n        thisRequest.voters[msg.sender] = true;\r\n        thisRequest.numberOfVoters++;\r\n    }\r\n\r\n    function voteForRequests(string memory _org_name,string memory _cause_name) public {\r\n        Request storage thisRequest;\r\n        for(uint i=0;i<requests.length;i++){\r\n            if(compareStrings(requests[i].org_name,_org_name) && compareStrings(requests[i].cause_name,_cause_name)){\r\n                thisRequest = requests[i];\r\n                break;\r\n            }\r\n        }\r\n        require(thisRequest.voters[msg.sender] == false,\"You have already done with voting\");\r\n        thisRequest.voters[msg.sender] = true;\r\n        thisRequest.numberOfVoters++;\r\n    }\r\n\r\n    function donate(string memory _org_name,string memory _cause_name) public payable{\r\n        for(uint i=0;i<requests.length;i++){\r\n            if(compareStrings(requests[i].org_name,_org_name) && compareStrings(requests[i].cause_name,_cause_name)){\r\n                require(requests[i].amount > requests[i].amount_collected,\"Required Fund has been collected already\");\r\n                requests[i].amount_collected += msg.value/1000000000000000000;\r\n            Histroy memory newHis = Histroy({\r\n                org_name: _org_name,\r\n                cause_name: _cause_name,\r\n                donor_address: msg.sender,\r\n                amount: msg.value\r\n            });\r\n\r\n            histroy.push(newHis);\r\n            requests[i].org_address.transfer(msg.value);\r\n                \r\n            }\r\n            //  require(requests[i].numberOfVoters > totalContributors / 2,\"\");\r\n        }\r\n    }\r\n\r\n    function compareStrings(string memory a, string memory b) private view returns (bool) {\r\n        return (keccak256(abi.encodePacked((a))) == keccak256(abi.encodePacked((b))));\r\n    }\r\n\r\n    function getAllTransactions() public view returns (Histroy [] memory) {\r\n        return histroy;\r\n    }\r\n\r\n}",
  "sourcePath": "C:\\Users\\HP\\Desktop\\BLOCKCHAIN_FYP\\contracts\\NGO.sol",
  "compiler": {
    "name": "solc",
    "version": "0.4.25+commit.59dbf8f1.Emscripten.clang"
  },
  "schemaVersion": "3.4.7",
  "updatedAt": "2022-06-17T07:32:22.011Z",
  "networkType": "ethereum",
  "devdoc": {
    "methods": {}
  },
  "userdoc": {
    "methods": {}
  }
}