{
  "contractName": "NGO",
  "abi": [
    {
      "constant": true,
      "inputs": [
        {
          "name": "",
          "type": "uint256"
        }
      ],
      "name": "histroy",
      "outputs": [
        {
          "name": "org_name",
          "type": "string"
        },
        {
          "name": "cause_name",
          "type": "string"
        },
        {
          "name": "donor_address",
          "type": "address"
        },
        {
          "name": "amount",
          "type": "uint256"
        }
      ],
      "payable": false,
      "stateMutability": "view",
      "type": "function"
    },
    {
      "constant": true,
      "inputs": [
        {
          "name": "",
          "type": "uint256"
        }
      ],
      "name": "requests",
      "outputs": [
        {
          "name": "org_name",
          "type": "string"
        },
        {
          "name": "org_address",
          "type": "address"
        },
        {
          "name": "cause_name",
          "type": "string"
        },
        {
          "name": "description",
          "type": "string"
        },
        {
          "name": "amount",
          "type": "uint256"
        },
        {
          "name": "amount_collected",
          "type": "uint256"
        },
        {
          "name": "numberOfVoters",
          "type": "uint256"
        },
        {
          "name": "timestamp",
          "type": "uint256"
        },
        {
          "name": "status",
          "type": "string"
        }
      ],
      "payable": false,
      "stateMutability": "view",
      "type": "function"
    },
    {
      "constant": true,
      "inputs": [],
      "name": "totalContributors",
      "outputs": [
        {
          "name": "",
          "type": "uint256"
        }
      ],
      "payable": false,
      "stateMutability": "view",
      "type": "function"
    },
    {
      "constant": false,
      "inputs": [
        {
          "name": "_org_name",
          "type": "string"
        },
        {
          "name": "_org_address",
          "type": "address"
        },
        {
          "name": "_cause_name",
          "type": "string"
        },
        {
          "name": "_description",
          "type": "string"
        },
        {
          "name": "_amount",
          "type": "uint256"
        }
      ],
      "name": "createNewRequest",
      "outputs": [],
      "payable": false,
      "stateMutability": "nonpayable",
      "type": "function"
    },
    {
      "constant": false,
      "inputs": [
        {
          "name": "index",
          "type": "uint256"
        }
      ],
      "name": "voteForRequest",
      "outputs": [],
      "payable": false,
      "stateMutability": "nonpayable",
      "type": "function"
    },
    {
      "constant": false,
      "inputs": [
        {
          "name": "_org_name",
          "type": "string"
        },
        {
          "name": "_cause_name",
          "type": "string"
        }
      ],
      "name": "donate",
      "outputs": [],
      "payable": true,
      "stateMutability": "payable",
      "type": "function"
    },
    {
      "constant": true,
      "inputs": [],
      "name": "getAllTransactions",
      "outputs": [
        {
          "components": [
            {
              "name": "org_name",
              "type": "string"
            },
            {
              "name": "cause_name",
              "type": "string"
            },
            {
              "name": "donor_address",
              "type": "address"
            },
            {
              "name": "amount",
              "type": "uint256"
            }
          ],
          "name": "",
          "type": "tuple[]"
        }
      ],
      "payable": false,
      "stateMutability": "view",
      "type": "function"
    }
  ],
  "bytecode": "0x608060405234801561001057600080fd5b506119cf806100206000396000f300608060405260043610610083576000357c0100000000000000000000000000000000000000000000000000000000900463ffffffff1680631653441c1461008857806327506f53146100a4578063700127ef146100cf57806379290b37146100f857806381d12c5814610138578063d6dbfb001461017d578063f251fc8c146101a6575b600080fd5b6100a2600480360361009d91908101906113ce565b6101d1565b005b3480156100b057600080fd5b506100b96105d4565b6040516100c691906116cc565b60405180910390f35b3480156100db57600080fd5b506100f660048036036100f1919081019061143a565b6107d8565b005b34801561010457600080fd5b5061011f600480360361011a919081019061143a565b610902565b60405161012f9493929190611797565b60405180910390f35b34801561014457600080fd5b5061015f600480360361015a919081019061143a565b610a91565b604051610174999897969594939291906116ee565b60405180910390f35b34801561018957600080fd5b506101a4600480360361019f919081019061130f565b610d6e565b005b3480156101b257600080fd5b506101bb610f93565b6040516101c8919061184a565b60405180910390f35b60006101db61114a565b600091505b6002805490508210156105ce576102af6002838154811015156101ff57fe5b90600052602060002090600a02016000018054600181600116156101000203166002900480601f0160208091040260200160405190810160405280929190818152602001828054600181600116156101000203166002900480156102a45780601f10610279576101008083540402835291602001916102a4565b820191906000526020600020905b81548152906001019060200180831161028757829003601f168201915b505050505085610f99565b801561037957506103786002838154811015156102c857fe5b90600052602060002090600a02016002018054600181600116156101000203166002900480601f01602080910402602001604051908101604052809291908181526020018280546001816001161561010002031660029004801561036d5780601f106103425761010080835404028352916020019161036d565b820191906000526020600020905b81548152906001019060200180831161035057829003601f168201915b505050505084610f99565b5b156105c15760028281548110151561038d57fe5b90600052602060002090600a0201600501546002838154811015156103ae57fe5b90600052602060002090600a020160040154111515610402576040517f08c379a00000000000000000000000000000000000000000000000000000000081526004016103f9906117ea565b60405180910390fd5b670de0b6b3a76400003481151561041557fe5b0460028381548110151561042557fe5b90600052602060002090600a0201600501600082825401925050819055506080604051908101604052808581526020018481526020013373ffffffffffffffffffffffffffffffffffffffff1681526020013481525090506003819080600181540180825580915050906001820390600052602060002090600402016000909192909190915060008201518160000190805190602001906104c7929190611189565b5060208201518160010190805190602001906104e4929190611189565b5060408201518160020160006101000a81548173ffffffffffffffffffffffffffffffffffffffff021916908373ffffffffffffffffffffffffffffffffffffffff1602179055506060820151816003015550505060028281548110151561054857fe5b90600052602060002090600a020160010160009054906101000a900473ffffffffffffffffffffffffffffffffffffffff1673ffffffffffffffffffffffffffffffffffffffff166108fc349081150290604051600060405180830381858888f193505050501580156105bf573d6000803e3d6000fd5b505b81806001019250506101e0565b50505050565b60606003805480602002602001604051908101604052809291908181526020016000905b828210156107cf578382906000526020600020906004020160806040519081016040529081600082018054600181600116156101000203166002900480601f0160208091040260200160405190810160405280929190818152602001828054600181600116156101000203166002900480156106b55780601f1061068a576101008083540402835291602001916106b5565b820191906000526020600020905b81548152906001019060200180831161069857829003601f168201915b50505050508152602001600182018054600181600116156101000203166002900480601f0160208091040260200160405190810160405280929190818152602001828054600181600116156101000203166002900480156107575780601f1061072c57610100808354040283529160200191610757565b820191906000526020600020905b81548152906001019060200180831161073a57829003601f168201915b505050505081526020016002820160009054906101000a900473ffffffffffffffffffffffffffffffffffffffff1673ffffffffffffffffffffffffffffffffffffffff1673ffffffffffffffffffffffffffffffffffffffff168152602001600382015481525050815260200190600101906105f8565b50505050905090565b60006002828154811015156107e957fe5b90600052602060002090600a02019050600015158160090160003373ffffffffffffffffffffffffffffffffffffffff1673ffffffffffffffffffffffffffffffffffffffff16815260200190815260200160002060009054906101000a900460ff161515141515610890576040517f08c379a00000000000000000000000000000000000000000000000000000000081526004016108879061182a565b60405180910390fd5b60018160090160003373ffffffffffffffffffffffffffffffffffffffff1673ffffffffffffffffffffffffffffffffffffffff16815260200190815260200160002060006101000a81548160ff02191690831515021790555080600601600081548092919060010191905055505050565b60038181548110151561091157fe5b9060005260206000209060040201600091509050806000018054600181600116156101000203166002900480601f0160208091040260200160405190810160405280929190818152602001828054600181600116156101000203166002900480156109bd5780601f10610992576101008083540402835291602001916109bd565b820191906000526020600020905b8154815290600101906020018083116109a057829003601f168201915b505050505090806001018054600181600116156101000203166002900480601f016020809104026020016040519081016040528092919081815260200182805460018160011615610100020316600290048015610a5b5780601f10610a3057610100808354040283529160200191610a5b565b820191906000526020600020905b815481529060010190602001808311610a3e57829003601f168201915b5050505050908060020160009054906101000a900473ffffffffffffffffffffffffffffffffffffffff16908060030154905084565b600281815481101515610aa057fe5b90600052602060002090600a0201600091509050806000018054600181600116156101000203166002900480601f016020809104026020016040519081016040528092919081815260200182805460018160011615610100020316600290048015610b4c5780601f10610b2157610100808354040283529160200191610b4c565b820191906000526020600020905b815481529060010190602001808311610b2f57829003601f168201915b5050505050908060010160009054906101000a900473ffffffffffffffffffffffffffffffffffffffff1690806002018054600181600116156101000203166002900480601f016020809104026020016040519081016040528092919081815260200182805460018160011615610100020316600290048015610c105780601f10610be557610100808354040283529160200191610c10565b820191906000526020600020905b815481529060010190602001808311610bf357829003601f168201915b505050505090806003018054600181600116156101000203166002900480601f016020809104026020016040519081016040528092919081815260200182805460018160011615610100020316600290048015610cae5780601f10610c8357610100808354040283529160200191610cae565b820191906000526020600020905b815481529060010190602001808311610c9157829003601f168201915b505050505090806004015490806005015490806006015490806007015490806008018054600181600116156101000203166002900480601f016020809104026020016040519081016040528092919081815260200182805460018160011615610100020316600290048015610d645780601f10610d3957610100808354040283529160200191610d64565b820191906000526020600020905b815481529060010190602001808311610d4757829003601f168201915b5050505050905089565b610d76611209565b3373ffffffffffffffffffffffffffffffffffffffff168573ffffffffffffffffffffffffffffffffffffffff16141515610de6576040517f08c379a0000000000000000000000000000000000000000000000000000000008152600401610ddd9061180a565b60405180910390fd5b610120604051908101604052808781526020018673ffffffffffffffffffffffffffffffffffffffff16815260200185815260200184815260200183815260200160008152602001600081526020014281526020016040805190810160405280601981526020017f70656e64696e672f617070726f7665642f72656a65637465640000000000000081525081525090506002819080600181540180825580915050906001820390600052602060002090600a0201600090919290919091506000820151816000019080519060200190610ec0929190611189565b5060208201518160010160006101000a81548173ffffffffffffffffffffffffffffffffffffffff021916908373ffffffffffffffffffffffffffffffffffffffff1602179055506040820151816002019080519060200190610f24929190611189565b506060820151816003019080519060200190610f41929190611189565b506080820151816004015560a0820151816005015560c0820151816006015560e08201518160070155610100820151816008019080519060200190610f87929190611189565b50505050505050505050565b60005481565b6000816040516020018082805190602001908083835b602083101515610fd45780518252602082019150602081019050602083039250610faf565b6001836020036101000a0380198251168184511680821785525050505050509050019150506040516020818303038152906040526040518082805190602001908083835b60208310151561103d5780518252602082019150602081019050602083039250611018565b6001836020036101000a038019825116818451168082178552505050505050905001915050604051809103902060001916836040516020018082805190602001908083835b6020831015156110a75780518252602082019150602081019050602083039250611082565b6001836020036101000a0380198251168184511680821785525050505050509050019150506040516020818303038152906040526040518082805190602001908083835b60208310151561111057805182526020820191506020810190506020830392506110eb565b6001836020036101000a03801982511681845116808217855250505050505090500191505060405180910390206000191614905092915050565b6080604051908101604052806060815260200160608152602001600073ffffffffffffffffffffffffffffffffffffffff168152602001600081525090565b828054600181600116156101000203166002900490600052602060002090601f016020900481019282601f106111ca57805160ff19168380011785556111f8565b828001600101855582156111f8579182015b828111156111f75782518255916020019190600101906111dc565b5b509050611205919061126c565b5090565b6101206040519081016040528060608152602001600073ffffffffffffffffffffffffffffffffffffffff168152602001606081526020016060815260200160008152602001600081526020016000815260200160008152602001606081525090565b61128e91905b8082111561128a576000816000905550600101611272565b5090565b90565b600061129d8235611918565b905092915050565b600082601f83011215156112b857600080fd5b81356112cb6112c682611892565b611865565b915080825260208301602083018583830111156112e757600080fd5b6112f2838284611942565b50505092915050565b60006113078235611938565b905092915050565b600080600080600060a0868803121561132757600080fd5b600086013567ffffffffffffffff81111561134157600080fd5b61134d888289016112a5565b955050602061135e88828901611291565b945050604086013567ffffffffffffffff81111561137b57600080fd5b611387888289016112a5565b935050606086013567ffffffffffffffff8111156113a457600080fd5b6113b0888289016112a5565b92505060806113c1888289016112fb565b9150509295509295909350565b600080604083850312156113e157600080fd5b600083013567ffffffffffffffff8111156113fb57600080fd5b611407858286016112a5565b925050602083013567ffffffffffffffff81111561142457600080fd5b611430858286016112a5565b9150509250929050565b60006020828403121561144c57600080fd5b600061145a848285016112fb565b91505092915050565b61146c816118ee565b82525050565b600061147d826118cb565b80845260208401935083602082028501611496856118be565b60005b848110156114cf5783830388526114b1838351611653565b92506114bc826118e1565b9150602088019750600181019050611499565b508196508694505050505092915050565b60006114eb826118d6565b8084526114ff816020860160208601611951565b61150881611984565b602085010191505092915050565b6000602882527f52657175697265642046756e6420686173206265656e20636f6c6c656374656460208301527f20616c72656164790000000000000000000000000000000000000000000000006040830152606082019050919050565b6000604982527f596f752063616e74206372656174652061206e6577207265717565737420617360208301527f20796f7520617265206e6f74207468652070617274206f6620746865206f726760408301527f616e697a6174696f6e00000000000000000000000000000000000000000000006060830152608082019050919050565b6000602182527f596f75206861766520616c726561647920646f6e65207769746820766f74696e60208301527f67000000000000000000000000000000000000000000000000000000000000006040830152606082019050919050565b6000608083016000830151848203600086015261167082826114e0565b9150506020830151848203602086015261168a82826114e0565b915050604083015161169f6040860182611463565b5060608301516116b260608601826116bd565b508091505092915050565b6116c68161190e565b82525050565b600060208201905081810360008301526116e68184611472565b905092915050565b6000610120820190508181036000830152611709818c6114e0565b9050611718602083018b611463565b818103604083015261172a818a6114e0565b9050818103606083015261173e81896114e0565b905061174d60808301886116bd565b61175a60a08301876116bd565b61176760c08301866116bd565b61177460e08301856116bd565b81810361010083015261178781846114e0565b90509a9950505050505050505050565b600060808201905081810360008301526117b181876114e0565b905081810360208301526117c581866114e0565b90506117d46040830185611463565b6117e160608301846116bd565b95945050505050565b6000602082019050818103600083015261180381611516565b9050919050565b6000602082019050818103600083015261182381611573565b9050919050565b60006020820190508181036000830152611843816115f6565b9050919050565b600060208201905061185f60008301846116bd565b92915050565b6000604051905081810181811067ffffffffffffffff8211171561188857600080fd5b8060405250919050565b600067ffffffffffffffff8211156118a957600080fd5b601f19601f8301169050602081019050919050565b6000602082019050919050565b600081519050919050565b600081519050919050565b6000602082019050919050565b600073ffffffffffffffffffffffffffffffffffffffff82169050919050565b6000819050919050565b600073ffffffffffffffffffffffffffffffffffffffff82169050919050565b6000819050919050565b82818337600083830152505050565b60005b8381101561196f578082015181840152602081019050611954565b8381111561197e576000848401525b50505050565b6000601f19601f83011690509190505600a265627a7a72305820a92429b1fe7b19f3d4623e494e0378bc0c339dedcc0de810cfe95a2eb57076d66c6578706572696d656e74616cf50037",
  "source": "pragma experimental ABIEncoderV2;\r\npragma solidity ^ 0.4.25;\r\n\r\ncontract NGO {\r\n    uint public totalContributors; \r\n    mapping(address=>bool) available_address;\r\n    struct Request {\r\n        string org_name;\r\n        address  org_address;\r\n        string cause_name;\r\n        string description;\r\n        uint amount;\r\n        uint amount_collected;\r\n        uint numberOfVoters;\r\n        uint256 timestamp;\r\n        string status;\r\n        mapping(address=>bool) voters;\r\n    }\r\n\r\n    Request [] public requests;\r\n\r\n    // struct NGO_Info {\r\n\r\n    // }\r\n\r\n    // struct Donor_Info {\r\n    //     string donor_name;\r\n    //     address donor_wallet_address;\r\n    //     string id;\r\n    // }\r\n\r\n    // Donor_Info [] donors;\r\n\r\n    struct Histroy {\r\n        string org_name;\r\n        string cause_name;\r\n        address donor_address;\r\n        uint amount;\r\n    }\r\n\r\n    Histroy [] public histroy;\r\n\r\n    function createNewRequest(string memory _org_name,address _org_address ,string memory _cause_name,string memory _description,uint _amount) public {\r\n        require(_org_address == msg.sender,\"You cant create a new request as you are not the part of the organization\");\r\n         Request memory newRequest = Request(\r\n            {\r\n                org_name:_org_name,\r\n                org_address:_org_address,\r\n                cause_name:_cause_name,\r\n                description:_description, //estimate to server 100 person each with 1 ether\r\n                amount:_amount,\r\n                amount_collected:0,\r\n                numberOfVoters:0,\r\n                timestamp:block.timestamp,\r\n                status:\"pending/approved/rejected\" \r\n            }\r\n            );\r\n         requests.push(newRequest);\r\n    }\r\n\r\n    function voteForRequest(uint index) public {\r\n        Request storage thisRequest = requests[index];\r\n        require(thisRequest.voters[msg.sender] == false,\"You have already done with voting\");\r\n        thisRequest.voters[msg.sender] = true;\r\n        thisRequest.numberOfVoters++;\r\n    }\r\n\r\n    function donate(string memory _org_name,string memory _cause_name) public payable{\r\n        for(uint i=0;i<requests.length;i++){\r\n            if(compareStrings(requests[i].org_name,_org_name) && compareStrings(requests[i].cause_name,_cause_name)){\r\n                require(requests[i].amount > requests[i].amount_collected,\"Required Fund has been collected already\");\r\n                requests[i].amount_collected += msg.value/1000000000000000000;\r\n            Histroy memory newHis = Histroy({\r\n                org_name: _org_name,\r\n                cause_name: _cause_name,\r\n                donor_address: msg.sender,\r\n                amount: msg.value\r\n            });\r\n\r\n            histroy.push(newHis);\r\n            requests[i].org_address.transfer(msg.value);\r\n                \r\n            }\r\n            //  require(requests[i].numberOfVoters > totalContributors / 2,\"\");\r\n        }\r\n    }\r\n\r\n    function compareStrings(string memory a, string memory b) private view returns (bool) {\r\n        return (keccak256(abi.encodePacked((a))) == keccak256(abi.encodePacked((b))));\r\n    }\r\n\r\n    function getAllTransactions() public view returns (Histroy [] memory) {\r\n        return histroy;\r\n    }\r\n\r\n}",
  "sourcePath": "C:\\Users\\HP\\Desktop\\BLOCKCHAIN_FYP\\contracts\\NGO.sol",
  "compiler": {
    "name": "solc",
    "version": "0.4.25+commit.59dbf8f1.Emscripten.clang"
  },
  "schemaVersion": "3.4.7",
  "updatedAt": "2022-06-16T10:06:18.105Z",
  "networkType": "ethereum",
  "devdoc": {
    "methods": {}
  },
  "userdoc": {
    "methods": {}
  }
}